{
  "_format": "hh-sol-artifact-1",
  "contractName": "JungleCards",
  "sourceName": "contracts/Token.sol",
  "abi": [
    {
      "inputs": [],
      "stateMutability": "nonpayable",
      "type": "constructor"
    },
    {
      "anonymous": false,
      "inputs": [
        {
          "indexed": true,
          "internalType": "address",
          "name": "account",
          "type": "address"
        },
        {
          "indexed": true,
          "internalType": "address",
          "name": "operator",
          "type": "address"
        },
        {
          "indexed": false,
          "internalType": "bool",
          "name": "approved",
          "type": "bool"
        }
      ],
      "name": "ApprovalForAll",
      "type": "event"
    },
    {
      "anonymous": false,
      "inputs": [
        {
          "indexed": true,
          "internalType": "address",
          "name": "operator",
          "type": "address"
        },
        {
          "indexed": true,
          "internalType": "address",
          "name": "from",
          "type": "address"
        },
        {
          "indexed": true,
          "internalType": "address",
          "name": "to",
          "type": "address"
        },
        {
          "indexed": false,
          "internalType": "uint256[]",
          "name": "ids",
          "type": "uint256[]"
        },
        {
          "indexed": false,
          "internalType": "uint256[]",
          "name": "values",
          "type": "uint256[]"
        }
      ],
      "name": "TransferBatch",
      "type": "event"
    },
    {
      "anonymous": false,
      "inputs": [
        {
          "indexed": true,
          "internalType": "address",
          "name": "operator",
          "type": "address"
        },
        {
          "indexed": true,
          "internalType": "address",
          "name": "from",
          "type": "address"
        },
        {
          "indexed": true,
          "internalType": "address",
          "name": "to",
          "type": "address"
        },
        {
          "indexed": false,
          "internalType": "uint256",
          "name": "id",
          "type": "uint256"
        },
        {
          "indexed": false,
          "internalType": "uint256",
          "name": "value",
          "type": "uint256"
        }
      ],
      "name": "TransferSingle",
      "type": "event"
    },
    {
      "anonymous": false,
      "inputs": [
        {
          "indexed": false,
          "internalType": "string",
          "name": "value",
          "type": "string"
        },
        {
          "indexed": true,
          "internalType": "uint256",
          "name": "id",
          "type": "uint256"
        }
      ],
      "name": "URI",
      "type": "event"
    },
    {
      "inputs": [],
      "name": "Rarecards",
      "outputs": [
        {
          "internalType": "uint256",
          "name": "",
          "type": "uint256"
        }
      ],
      "stateMutability": "view",
      "type": "function"
    },
    {
      "inputs": [],
      "name": "Totalcards",
      "outputs": [
        {
          "internalType": "uint256",
          "name": "",
          "type": "uint256"
        }
      ],
      "stateMutability": "view",
      "type": "function"
    },
    {
      "inputs": [
        {
          "internalType": "address",
          "name": "account",
          "type": "address"
        },
        {
          "internalType": "uint256",
          "name": "id",
          "type": "uint256"
        }
      ],
      "name": "balanceOf",
      "outputs": [
        {
          "internalType": "uint256",
          "name": "",
          "type": "uint256"
        }
      ],
      "stateMutability": "view",
      "type": "function"
    },
    {
      "inputs": [
        {
          "internalType": "address[]",
          "name": "accounts",
          "type": "address[]"
        },
        {
          "internalType": "uint256[]",
          "name": "ids",
          "type": "uint256[]"
        }
      ],
      "name": "balanceOfBatch",
      "outputs": [
        {
          "internalType": "uint256[]",
          "name": "",
          "type": "uint256[]"
        }
      ],
      "stateMutability": "view",
      "type": "function"
    },
    {
      "inputs": [],
      "name": "description",
      "outputs": [
        {
          "internalType": "string",
          "name": "",
          "type": "string"
        }
      ],
      "stateMutability": "view",
      "type": "function"
    },
    {
      "inputs": [
        {
          "internalType": "address",
          "name": "account",
          "type": "address"
        },
        {
          "internalType": "address",
          "name": "operator",
          "type": "address"
        }
      ],
      "name": "isApprovedForAll",
      "outputs": [
        {
          "internalType": "bool",
          "name": "",
          "type": "bool"
        }
      ],
      "stateMutability": "view",
      "type": "function"
    },
    {
      "inputs": [],
      "name": "mint",
      "outputs": [],
      "stateMutability": "nonpayable",
      "type": "function"
    },
    {
      "inputs": [],
      "name": "name",
      "outputs": [
        {
          "internalType": "string",
          "name": "",
          "type": "string"
        }
      ],
      "stateMutability": "view",
      "type": "function"
    },
    {
      "inputs": [
        {
          "internalType": "uint256",
          "name": "max",
          "type": "uint256"
        },
        {
          "internalType": "uint256",
          "name": "salt",
          "type": "uint256"
        }
      ],
      "name": "random",
      "outputs": [
        {
          "internalType": "uint256",
          "name": "",
          "type": "uint256"
        }
      ],
      "stateMutability": "view",
      "type": "function"
    },
    {
      "inputs": [
        {
          "internalType": "uint256",
          "name": "card1",
          "type": "uint256"
        },
        {
          "internalType": "uint256",
          "name": "card2",
          "type": "uint256"
        },
        {
          "internalType": "uint256",
          "name": "card3",
          "type": "uint256"
        }
      ],
      "name": "reroll",
      "outputs": [],
      "stateMutability": "nonpayable",
      "type": "function"
    },
    {
      "inputs": [
        {
          "internalType": "address",
          "name": "from",
          "type": "address"
        },
        {
          "internalType": "address",
          "name": "to",
          "type": "address"
        },
        {
          "internalType": "uint256[]",
          "name": "ids",
          "type": "uint256[]"
        },
        {
          "internalType": "uint256[]",
          "name": "amounts",
          "type": "uint256[]"
        },
        {
          "internalType": "bytes",
          "name": "data",
          "type": "bytes"
        }
      ],
      "name": "safeBatchTransferFrom",
      "outputs": [],
      "stateMutability": "nonpayable",
      "type": "function"
    },
    {
      "inputs": [
        {
          "internalType": "address",
          "name": "from",
          "type": "address"
        },
        {
          "internalType": "address",
          "name": "to",
          "type": "address"
        },
        {
          "internalType": "uint256",
          "name": "id",
          "type": "uint256"
        },
        {
          "internalType": "uint256",
          "name": "amount",
          "type": "uint256"
        },
        {
          "internalType": "bytes",
          "name": "data",
          "type": "bytes"
        }
      ],
      "name": "safeTransferFrom",
      "outputs": [],
      "stateMutability": "nonpayable",
      "type": "function"
    },
    {
      "inputs": [
        {
          "internalType": "address",
          "name": "operator",
          "type": "address"
        },
        {
          "internalType": "bool",
          "name": "approved",
          "type": "bool"
        }
      ],
      "name": "setApprovalForAll",
      "outputs": [],
      "stateMutability": "nonpayable",
      "type": "function"
    },
    {
      "inputs": [
        {
          "internalType": "bytes4",
          "name": "interfaceId",
          "type": "bytes4"
        }
      ],
      "name": "supportsInterface",
      "outputs": [
        {
          "internalType": "bool",
          "name": "",
          "type": "bool"
        }
      ],
      "stateMutability": "view",
      "type": "function"
    },
    {
      "inputs": [],
      "name": "symbol",
      "outputs": [
        {
          "internalType": "string",
          "name": "",
          "type": "string"
        }
      ],
      "stateMutability": "view",
      "type": "function"
    },
    {
      "inputs": [
        {
          "internalType": "uint256",
          "name": "_tokenid",
          "type": "uint256"
        }
      ],
      "name": "uri",
      "outputs": [
        {
          "internalType": "string",
          "name": "",
          "type": "string"
        }
      ],
      "stateMutability": "pure",
      "type": "function"
    }
  ],
  "bytecode": "0x6080604052601960035560196004556040518060400160405280601781526020017f4a756e676c6520436172647320436f6c6c656374696f6e0000000000000000008152506005908162000054919062000396565b506040518060400160405280600581526020017f4a554e474c000000000000000000000000000000000000000000000000000000815250600690816200009b919062000396565b5060405180606001604052806032815260200162003ada6032913960079081620000c6919062000396565b50348015620000d457600080fd5b506040518060800160405280604d815260200162003a8d604d913962000100816200010760201b60201c565b506200047d565b806002908162000118919062000396565b5050565b600081519050919050565b7f4e487b7100000000000000000000000000000000000000000000000000000000600052604160045260246000fd5b7f4e487b7100000000000000000000000000000000000000000000000000000000600052602260045260246000fd5b600060028204905060018216806200019e57607f821691505b602082108103620001b457620001b362000156565b5b50919050565b60008190508160005260206000209050919050565b60006020601f8301049050919050565b600082821b905092915050565b6000600883026200021e7fffffffffffffffffffffffffffffffffffffffffffffffffffffffffffffffff82620001df565b6200022a8683620001df565b95508019841693508086168417925050509392505050565b6000819050919050565b6000819050919050565b600062000277620002716200026b8462000242565b6200024c565b62000242565b9050919050565b6000819050919050565b620002938362000256565b620002ab620002a2826200027e565b848454620001ec565b825550505050565b600090565b620002c2620002b3565b620002cf81848462000288565b505050565b5b81811015620002f757620002eb600082620002b8565b600181019050620002d5565b5050565b601f82111562000346576200031081620001ba565b6200031b84620001cf565b810160208510156200032b578190505b620003436200033a85620001cf565b830182620002d4565b50505b505050565b600082821c905092915050565b60006200036b600019846008026200034b565b1980831691505092915050565b600062000386838362000358565b9150826002028217905092915050565b620003a1826200011c565b67ffffffffffffffff811115620003bd57620003bc62000127565b5b620003c9825462000185565b620003d6828285620002fb565b600060209050601f8311600181146200040e5760008415620003f9578287015190505b62000405858262000378565b86555062000475565b601f1984166200041e86620001ba565b60005b82811015620004485784890151825560018201915060208501945060208101905062000421565b8683101562000468578489015162000464601f89168262000358565b8355505b6001600288020188555050505b505050505050565b613600806200048d6000396000f3fe608060405234801561001057600080fd5b50600436106100ff5760003560e01c80637284e41611610097578063a9dd122511610066578063a9dd12251461029a578063ddd38b07146102ca578063e985e9c5146102e8578063f242432a14610318576100ff565b80637284e4161461022457806394818f7e1461024257806395d89b4114610260578063a22cb4651461027e576100ff565b80631249c58b116100d35780631249c58b146101b257806320f56a61146101bc5780632eb2c2d6146101d85780634e1273f4146101f4576100ff565b8062fdd58e1461010457806301ffc9a71461013457806306fdde03146101645780630e89341c14610182575b600080fd5b61011e6004803603810190610119919061201d565b610334565b60405161012b919061206c565b60405180910390f35b61014e600480360381019061014991906120df565b6103fc565b60405161015b9190612127565b60405180910390f35b61016c6104de565b60405161017991906121d2565b60405180910390f35b61019c600480360381019061019791906121f4565b61056c565b6040516101a991906121d2565b60405180910390f35b6101ba61059d565b005b6101d660048036038101906101d19190612221565b6106ae565b005b6101f260048036038101906101ed9190612471565b61085a565b005b61020e60048036038101906102099190612603565b6108fb565b60405161021b9190612739565b60405180910390f35b61022c610a14565b60405161023991906121d2565b60405180910390f35b61024a610aa2565b604051610257919061206c565b60405180910390f35b610268610aa8565b60405161027591906121d2565b60405180910390f35b61029860048036038101906102939190612787565b610b36565b005b6102b460048036038101906102af91906127c7565b610b4c565b6040516102c1919061206c565b60405180910390f35b6102d2610ba6565b6040516102df919061206c565b60405180910390f35b61030260048036038101906102fd9190612807565b610bac565b60405161030f9190612127565b60405180910390f35b610332600480360381019061032d9190612847565b610c40565b005b60008073ffffffffffffffffffffffffffffffffffffffff168373ffffffffffffffffffffffffffffffffffffffff16036103a4576040517f08c379a000000000000000000000000000000000000000000000000000000000815260040161039b90612950565b60405180910390fd5b60008083815260200190815260200160002060008473ffffffffffffffffffffffffffffffffffffffff1673ffffffffffffffffffffffffffffffffffffffff16815260200190815260200160002054905092915050565b60007fd9b67a26000000000000000000000000000000000000000000000000000000007bffffffffffffffffffffffffffffffffffffffffffffffffffffffff1916827bffffffffffffffffffffffffffffffffffffffffffffffffffffffff191614806104c757507f0e89341c000000000000000000000000000000000000000000000000000000007bffffffffffffffffffffffffffffffffffffffffffffffffffffffff1916827bffffffffffffffffffffffffffffffffffffffffffffffffffffffff1916145b806104d757506104d682610ce1565b5b9050919050565b600580546104eb9061299f565b80601f01602080910402602001604051908101604052809291908181526020018280546105179061299f565b80156105645780601f1061053957610100808354040283529160200191610564565b820191906000526020600020905b81548152906001019060200180831161054757829003601f168201915b505050505081565b606061057782610d4b565b6040516020016105879190612af0565b6040516020818303038152906040529050919050565b60006105c6336105af60035484610b4c565b600160405180602001604052806000815250610e19565b6001816105d39190612b4c565b90506105fc336105e560035484610b4c565b600160405180602001604052806000815250610e19565b6001816106099190612b4c565b90506106323361061b60035484610b4c565b600160405180602001604052806000815250610e19565b60018161063f9190612b4c565b90506106683361065160035484610b4c565b600160405180602001604052806000815250610e19565b6001816106759190612b4c565b90506106ab3360045461068a60035485610b4c565b6106949190612b4c565b600160405180602001604052806000815250610e19565b50565b6000600367ffffffffffffffff8111156106cb576106ca612279565b5b6040519080825280602002602001820160405280156106f95781602001602082028036833780820191505090505b5090506000600367ffffffffffffffff81111561071957610718612279565b5b6040519080825280602002602001820160405280156107475781602001602082028036833780820191505090505b509050848260008151811061075f5761075e612b80565b5b60200260200101818152505083826001815181106107805761077f612b80565b5b60200260200101818152505082826002815181106107a1576107a0612b80565b5b6020026020010181815250506001816000815181106107c3576107c2612b80565b5b6020026020010181815250506001816001815181106107e5576107e4612b80565b5b60200260200101818152505060018160028151811061080757610806612b80565b5b60200260200101818152505061081e338383610fc9565b610853336004546108326003546001610b4c565b61083c9190612b4c565b600160405180602001604052806000815250610e19565b5050505050565b610862611297565b73ffffffffffffffffffffffffffffffffffffffff168573ffffffffffffffffffffffffffffffffffffffff1614806108a857506108a7856108a2611297565b610bac565b5b6108e7576040517f08c379a00000000000000000000000000000000000000000000000000000000081526004016108de90612c21565b60405180910390fd5b6108f4858585858561129f565b5050505050565b60608151835114610941576040517f08c379a000000000000000000000000000000000000000000000000000000000815260040161093890612cb3565b60405180910390fd5b6000835167ffffffffffffffff81111561095e5761095d612279565b5b60405190808252806020026020018201604052801561098c5781602001602082028036833780820191505090505b50905060005b8451811015610a09576109d98582815181106109b1576109b0612b80565b5b60200260200101518583815181106109cc576109cb612b80565b5b6020026020010151610334565b8282815181106109ec576109eb612b80565b5b60200260200101818152505080610a0290612cd3565b9050610992565b508091505092915050565b60078054610a219061299f565b80601f0160208091040260200160405190810160405280929190818152602001828054610a4d9061299f565b8015610a9a5780601f10610a6f57610100808354040283529160200191610a9a565b820191906000526020600020905b815481529060010190602001808311610a7d57829003601f168201915b505050505081565b60045481565b60068054610ab59061299f565b80601f0160208091040260200160405190810160405280929190818152602001828054610ae19061299f565b8015610b2e5780601f10610b0357610100808354040283529160200191610b2e565b820191906000526020600020905b815481529060010190602001808311610b1157829003601f168201915b505050505081565b610b48610b41611297565b83836115c0565b5050565b60006001838342610b5d9190612b4c565b4433604051602001610b7193929190612d84565b6040516020818303038152906040528051906020012060001c610b949190612df0565b610b9e9190612b4c565b905092915050565b60035481565b6000600160008473ffffffffffffffffffffffffffffffffffffffff1673ffffffffffffffffffffffffffffffffffffffff16815260200190815260200160002060008373ffffffffffffffffffffffffffffffffffffffff1673ffffffffffffffffffffffffffffffffffffffff16815260200190815260200160002060009054906101000a900460ff16905092915050565b610c48611297565b73ffffffffffffffffffffffffffffffffffffffff168573ffffffffffffffffffffffffffffffffffffffff161480610c8e5750610c8d85610c88611297565b610bac565b5b610ccd576040517f08c379a0000000000000000000000000000000000000000000000000000000008152600401610cc490612c21565b60405180910390fd5b610cda858585858561172c565b5050505050565b60007f01ffc9a7000000000000000000000000000000000000000000000000000000007bffffffffffffffffffffffffffffffffffffffffffffffffffffffff1916827bffffffffffffffffffffffffffffffffffffffffffffffffffffffff1916149050919050565b606060006001610d5a846119c7565b01905060008167ffffffffffffffff811115610d7957610d78612279565b5b6040519080825280601f01601f191660200182016040528015610dab5781602001600182028036833780820191505090505b509050600082602001820190505b600115610e0e578080600190039150507f3031323334353637383961626364656600000000000000000000000000000000600a86061a8153600a8581610e0257610e01612dc1565b5b04945060008503610db9575b819350505050919050565b600073ffffffffffffffffffffffffffffffffffffffff168473ffffffffffffffffffffffffffffffffffffffff1603610e88576040517f08c379a0000000000000000000000000000000000000000000000000000000008152600401610e7f90612e93565b60405180910390fd5b6000610e92611297565b90506000610e9f85611b1a565b90506000610eac85611b1a565b9050610ebd83600089858589611b94565b8460008088815260200190815260200160002060008973ffffffffffffffffffffffffffffffffffffffff1673ffffffffffffffffffffffffffffffffffffffff1681526020019081526020016000206000828254610f1c9190612b4c565b925050819055508673ffffffffffffffffffffffffffffffffffffffff16600073ffffffffffffffffffffffffffffffffffffffff168473ffffffffffffffffffffffffffffffffffffffff167fc3d58168c5ae7397731d063d5bbf3d657854427343f4c083240f7aacaa2d0f628989604051610f9a929190612eb3565b60405180910390a4610fb183600089858589611b9c565b610fc083600089898989611ba4565b50505050505050565b600073ffffffffffffffffffffffffffffffffffffffff168373ffffffffffffffffffffffffffffffffffffffff1603611038576040517f08c379a000000000000000000000000000000000000000000000000000000000815260040161102f90612f4e565b60405180910390fd5b805182511461107c576040517f08c379a000000000000000000000000000000000000000000000000000000000815260040161107390612fe0565b60405180910390fd5b6000611086611297565b90506110a681856000868660405180602001604052806000815250611b94565b60005b83518110156111f35760008482815181106110c7576110c6612b80565b5b6020026020010151905060008483815181106110e6576110e5612b80565b5b60200260200101519050600080600084815260200190815260200160002060008973ffffffffffffffffffffffffffffffffffffffff1673ffffffffffffffffffffffffffffffffffffffff16815260200190815260200160002054905081811015611187576040517f08c379a000000000000000000000000000000000000000000000000000000000815260040161117e90613072565b60405180910390fd5b81810360008085815260200190815260200160002060008a73ffffffffffffffffffffffffffffffffffffffff1673ffffffffffffffffffffffffffffffffffffffff1681526020019081526020016000208190555050505080806111eb90612cd3565b9150506110a9565b50600073ffffffffffffffffffffffffffffffffffffffff168473ffffffffffffffffffffffffffffffffffffffff168273ffffffffffffffffffffffffffffffffffffffff167f4a39dc06d4c0dbc64b70af90fd698a233a518aa5d07e595d983b8c0526c8f7fb868660405161126b929190613092565b60405180910390a461129181856000868660405180602001604052806000815250611b9c565b50505050565b600033905090565b81518351146112e3576040517f08c379a00000000000000000000000000000000000000000000000000000000081526004016112da90612fe0565b60405180910390fd5b600073ffffffffffffffffffffffffffffffffffffffff168473ffffffffffffffffffffffffffffffffffffffff1603611352576040517f08c379a00000000000000000000000000000000000000000000000000000000081526004016113499061313b565b60405180910390fd5b600061135c611297565b905061136c818787878787611b94565b60005b845181101561151d57600085828151811061138d5761138c612b80565b5b6020026020010151905060008583815181106113ac576113ab612b80565b5b60200260200101519050600080600084815260200190815260200160002060008b73ffffffffffffffffffffffffffffffffffffffff1673ffffffffffffffffffffffffffffffffffffffff1681526020019081526020016000205490508181101561144d576040517f08c379a0000000000000000000000000000000000000000000000000000000008152600401611444906131cd565b60405180910390fd5b81810360008085815260200190815260200160002060008c73ffffffffffffffffffffffffffffffffffffffff1673ffffffffffffffffffffffffffffffffffffffff168152602001908152602001600020819055508160008085815260200190815260200160002060008b73ffffffffffffffffffffffffffffffffffffffff1673ffffffffffffffffffffffffffffffffffffffff16815260200190815260200160002060008282546115029190612b4c565b925050819055505050508061151690612cd3565b905061136f565b508473ffffffffffffffffffffffffffffffffffffffff168673ffffffffffffffffffffffffffffffffffffffff168273ffffffffffffffffffffffffffffffffffffffff167f4a39dc06d4c0dbc64b70af90fd698a233a518aa5d07e595d983b8c0526c8f7fb8787604051611594929190613092565b60405180910390a46115aa818787878787611b9c565b6115b8818787878787611d7b565b505050505050565b8173ffffffffffffffffffffffffffffffffffffffff168373ffffffffffffffffffffffffffffffffffffffff160361162e576040517f08c379a00000000000000000000000000000000000000000000000000000000081526004016116259061325f565b60405180910390fd5b80600160008573ffffffffffffffffffffffffffffffffffffffff1673ffffffffffffffffffffffffffffffffffffffff16815260200190815260200160002060008473ffffffffffffffffffffffffffffffffffffffff1673ffffffffffffffffffffffffffffffffffffffff16815260200190815260200160002060006101000a81548160ff0219169083151502179055508173ffffffffffffffffffffffffffffffffffffffff168373ffffffffffffffffffffffffffffffffffffffff167f17307eab39ab6107e8899845ad3d59bd9653f200f220920489ca2b5937696c318360405161171f9190612127565b60405180910390a3505050565b600073ffffffffffffffffffffffffffffffffffffffff168473ffffffffffffffffffffffffffffffffffffffff160361179b576040517f08c379a00000000000000000000000000000000000000000000000000000000081526004016117929061313b565b60405180910390fd5b60006117a5611297565b905060006117b285611b1a565b905060006117bf85611b1a565b90506117cf838989858589611b94565b600080600088815260200190815260200160002060008a73ffffffffffffffffffffffffffffffffffffffff1673ffffffffffffffffffffffffffffffffffffffff16815260200190815260200160002054905085811015611866576040517f08c379a000000000000000000000000000000000000000000000000000000000815260040161185d906131cd565b60405180910390fd5b85810360008089815260200190815260200160002060008b73ffffffffffffffffffffffffffffffffffffffff1673ffffffffffffffffffffffffffffffffffffffff168152602001908152602001600020819055508560008089815260200190815260200160002060008a73ffffffffffffffffffffffffffffffffffffffff1673ffffffffffffffffffffffffffffffffffffffff168152602001908152602001600020600082825461191b9190612b4c565b925050819055508773ffffffffffffffffffffffffffffffffffffffff168973ffffffffffffffffffffffffffffffffffffffff168573ffffffffffffffffffffffffffffffffffffffff167fc3d58168c5ae7397731d063d5bbf3d657854427343f4c083240f7aacaa2d0f628a8a604051611998929190612eb3565b60405180910390a46119ae848a8a86868a611b9c565b6119bc848a8a8a8a8a611ba4565b505050505050505050565b600080600090507a184f03e93ff9f4daa797ed6e38ed64bf6a1f0100000000000000008310611a25577a184f03e93ff9f4daa797ed6e38ed64bf6a1f0100000000000000008381611a1b57611a1a612dc1565b5b0492506040810190505b6d04ee2d6d415b85acef81000000008310611a62576d04ee2d6d415b85acef81000000008381611a5857611a57612dc1565b5b0492506020810190505b662386f26fc100008310611a9157662386f26fc100008381611a8757611a86612dc1565b5b0492506010810190505b6305f5e1008310611aba576305f5e1008381611ab057611aaf612dc1565b5b0492506008810190505b6127108310611adf576127108381611ad557611ad4612dc1565b5b0492506004810190505b60648310611b025760648381611af857611af7612dc1565b5b0492506002810190505b600a8310611b11576001810190505b80915050919050565b60606000600167ffffffffffffffff811115611b3957611b38612279565b5b604051908082528060200260200182016040528015611b675781602001602082028036833780820191505090505b5090508281600081518110611b7f57611b7e612b80565b5b60200260200101818152505080915050919050565b505050505050565b505050505050565b611bc38473ffffffffffffffffffffffffffffffffffffffff16611f52565b15611d73578373ffffffffffffffffffffffffffffffffffffffff1663f23a6e6187878686866040518663ffffffff1660e01b8152600401611c099594939291906132e3565b6020604051808303816000875af1925050508015611c4557506040513d601f19601f82011682018060405250810190611c429190613352565b60015b611cea57611c5161338c565b806308c379a003611cad5750611c656133ae565b80611c705750611caf565b806040517f08c379a0000000000000000000000000000000000000000000000000000000008152600401611ca491906121d2565b60405180910390fd5b505b6040517f08c379a0000000000000000000000000000000000000000000000000000000008152600401611ce1906134b0565b60405180910390fd5b63f23a6e6160e01b7bffffffffffffffffffffffffffffffffffffffffffffffffffffffff1916817bffffffffffffffffffffffffffffffffffffffffffffffffffffffff191614611d71576040517f08c379a0000000000000000000000000000000000000000000000000000000008152600401611d6890613542565b60405180910390fd5b505b505050505050565b611d9a8473ffffffffffffffffffffffffffffffffffffffff16611f52565b15611f4a578373ffffffffffffffffffffffffffffffffffffffff1663bc197c8187878686866040518663ffffffff1660e01b8152600401611de0959493929190613562565b6020604051808303816000875af1925050508015611e1c57506040513d601f19601f82011682018060405250810190611e199190613352565b60015b611ec157611e2861338c565b806308c379a003611e845750611e3c6133ae565b80611e475750611e86565b806040517f08c379a0000000000000000000000000000000000000000000000000000000008152600401611e7b91906121d2565b60405180910390fd5b505b6040517f08c379a0000000000000000000000000000000000000000000000000000000008152600401611eb8906134b0565b60405180910390fd5b63bc197c8160e01b7bffffffffffffffffffffffffffffffffffffffffffffffffffffffff1916817bffffffffffffffffffffffffffffffffffffffffffffffffffffffff191614611f48576040517f08c379a0000000000000000000000000000000000000000000000000000000008152600401611f3f90613542565b60405180910390fd5b505b505050505050565b6000808273ffffffffffffffffffffffffffffffffffffffff163b119050919050565b6000604051905090565b600080fd5b600080fd5b600073ffffffffffffffffffffffffffffffffffffffff82169050919050565b6000611fb482611f89565b9050919050565b611fc481611fa9565b8114611fcf57600080fd5b50565b600081359050611fe181611fbb565b92915050565b6000819050919050565b611ffa81611fe7565b811461200557600080fd5b50565b60008135905061201781611ff1565b92915050565b6000806040838503121561203457612033611f7f565b5b600061204285828601611fd2565b925050602061205385828601612008565b9150509250929050565b61206681611fe7565b82525050565b6000602082019050612081600083018461205d565b92915050565b60007fffffffff0000000000000000000000000000000000000000000000000000000082169050919050565b6120bc81612087565b81146120c757600080fd5b50565b6000813590506120d9816120b3565b92915050565b6000602082840312156120f5576120f4611f7f565b5b6000612103848285016120ca565b91505092915050565b60008115159050919050565b6121218161210c565b82525050565b600060208201905061213c6000830184612118565b92915050565b600081519050919050565b600082825260208201905092915050565b60005b8381101561217c578082015181840152602081019050612161565b60008484015250505050565b6000601f19601f8301169050919050565b60006121a482612142565b6121ae818561214d565b93506121be81856020860161215e565b6121c781612188565b840191505092915050565b600060208201905081810360008301526121ec8184612199565b905092915050565b60006020828403121561220a57612209611f7f565b5b600061221884828501612008565b91505092915050565b60008060006060848603121561223a57612239611f7f565b5b600061224886828701612008565b935050602061225986828701612008565b925050604061226a86828701612008565b9150509250925092565b600080fd5b7f4e487b7100000000000000000000000000000000000000000000000000000000600052604160045260246000fd5b6122b182612188565b810181811067ffffffffffffffff821117156122d0576122cf612279565b5b80604052505050565b60006122e3611f75565b90506122ef82826122a8565b919050565b600067ffffffffffffffff82111561230f5761230e612279565b5b602082029050602081019050919050565b600080fd5b6000612338612333846122f4565b6122d9565b9050808382526020820190506020840283018581111561235b5761235a612320565b5b835b8181101561238457806123708882612008565b84526020840193505060208101905061235d565b5050509392505050565b600082601f8301126123a3576123a2612274565b5b81356123b3848260208601612325565b91505092915050565b600080fd5b600067ffffffffffffffff8211156123dc576123db612279565b5b6123e582612188565b9050602081019050919050565b82818337600083830152505050565b600061241461240f846123c1565b6122d9565b9050828152602081018484840111156124305761242f6123bc565b5b61243b8482856123f2565b509392505050565b600082601f83011261245857612457612274565b5b8135612468848260208601612401565b91505092915050565b600080600080600060a0868803121561248d5761248c611f7f565b5b600061249b88828901611fd2565b95505060206124ac88828901611fd2565b945050604086013567ffffffffffffffff8111156124cd576124cc611f84565b5b6124d98882890161238e565b935050606086013567ffffffffffffffff8111156124fa576124f9611f84565b5b6125068882890161238e565b925050608086013567ffffffffffffffff81111561252757612526611f84565b5b61253388828901612443565b9150509295509295909350565b600067ffffffffffffffff82111561255b5761255a612279565b5b602082029050602081019050919050565b600061257f61257a84612540565b6122d9565b905080838252602082019050602084028301858111156125a2576125a1612320565b5b835b818110156125cb57806125b78882611fd2565b8452602084019350506020810190506125a4565b5050509392505050565b600082601f8301126125ea576125e9612274565b5b81356125fa84826020860161256c565b91505092915050565b6000806040838503121561261a57612619611f7f565b5b600083013567ffffffffffffffff81111561263857612637611f84565b5b612644858286016125d5565b925050602083013567ffffffffffffffff81111561266557612664611f84565b5b6126718582860161238e565b9150509250929050565b600081519050919050565b600082825260208201905092915050565b6000819050602082019050919050565b6126b081611fe7565b82525050565b60006126c283836126a7565b60208301905092915050565b6000602082019050919050565b60006126e68261267b565b6126f08185612686565b93506126fb83612697565b8060005b8381101561272c57815161271388826126b6565b975061271e836126ce565b9250506001810190506126ff565b5085935050505092915050565b6000602082019050818103600083015261275381846126db565b905092915050565b6127648161210c565b811461276f57600080fd5b50565b6000813590506127818161275b565b92915050565b6000806040838503121561279e5761279d611f7f565b5b60006127ac85828601611fd2565b92505060206127bd85828601612772565b9150509250929050565b600080604083850312156127de576127dd611f7f565b5b60006127ec85828601612008565b92505060206127fd85828601612008565b9150509250929050565b6000806040838503121561281e5761281d611f7f565b5b600061282c85828601611fd2565b925050602061283d85828601611fd2565b9150509250929050565b600080600080600060a0868803121561286357612862611f7f565b5b600061287188828901611fd2565b955050602061288288828901611fd2565b945050604061289388828901612008565b93505060606128a488828901612008565b925050608086013567ffffffffffffffff8111156128c5576128c4611f84565b5b6128d188828901612443565b9150509295509295909350565b7f455243313135353a2061646472657373207a65726f206973206e6f742061207660008201527f616c6964206f776e657200000000000000000000000000000000000000000000602082015250565b600061293a602a8361214d565b9150612945826128de565b604082019050919050565b600060208201905081810360008301526129698161292d565b9050919050565b7f4e487b7100000000000000000000000000000000000000000000000000000000600052602260045260246000fd5b600060028204905060018216806129b757607f821691505b6020821081036129ca576129c9612970565b5b50919050565b600081905092915050565b7f68747470733a2f2f697066732e696f2f697066732f516d517271374b486d6d3860008201527f7273336f714355466f31616567664b4c417966535a5858387647575442714d6460208201527f6172672f00000000000000000000000000000000000000000000000000000000604082015250565b6000612a5d6044836129d0565b9150612a68826129db565b604482019050919050565b6000612a7e82612142565b612a8881856129d0565b9350612a9881856020860161215e565b80840191505092915050565b7f2e6a736f6e000000000000000000000000000000000000000000000000000000600082015250565b6000612ada6005836129d0565b9150612ae582612aa4565b600582019050919050565b6000612afb82612a50565b9150612b078284612a73565b9150612b1282612acd565b915081905092915050565b7f4e487b7100000000000000000000000000000000000000000000000000000000600052601160045260246000fd5b6000612b5782611fe7565b9150612b6283611fe7565b9250828201905080821115612b7a57612b79612b1d565b5b92915050565b7f4e487b7100000000000000000000000000000000000000000000000000000000600052603260045260246000fd5b7f455243313135353a2063616c6c6572206973206e6f7420746f6b656e206f776e60008201527f6572206f7220617070726f766564000000000000000000000000000000000000602082015250565b6000612c0b602e8361214d565b9150612c1682612baf565b604082019050919050565b60006020820190508181036000830152612c3a81612bfe565b9050919050565b7f455243313135353a206163636f756e747320616e6420696473206c656e67746860008201527f206d69736d617463680000000000000000000000000000000000000000000000602082015250565b6000612c9d60298361214d565b9150612ca882612c41565b604082019050919050565b60006020820190508181036000830152612ccc81612c90565b9050919050565b6000612cde82611fe7565b91507fffffffffffffffffffffffffffffffffffffffffffffffffffffffffffffffff8203612d1057612d0f612b1d565b5b600182019050919050565b6000819050919050565b612d36612d3182611fe7565b612d1b565b82525050565b60008160601b9050919050565b6000612d5482612d3c565b9050919050565b6000612d6682612d49565b9050919050565b612d7e612d7982611fa9565b612d5b565b82525050565b6000612d908286612d25565b602082019150612da08285612d25565b602082019150612db08284612d6d565b601482019150819050949350505050565b7f4e487b7100000000000000000000000000000000000000000000000000000000600052601260045260246000fd5b6000612dfb82611fe7565b9150612e0683611fe7565b925082612e1657612e15612dc1565b5b828206905092915050565b7f455243313135353a206d696e7420746f20746865207a65726f2061646472657360008201527f7300000000000000000000000000000000000000000000000000000000000000602082015250565b6000612e7d60218361214d565b9150612e8882612e21565b604082019050919050565b60006020820190508181036000830152612eac81612e70565b9050919050565b6000604082019050612ec8600083018561205d565b612ed5602083018461205d565b9392505050565b7f455243313135353a206275726e2066726f6d20746865207a65726f206164647260008201527f6573730000000000000000000000000000000000000000000000000000000000602082015250565b6000612f3860238361214d565b9150612f4382612edc565b604082019050919050565b60006020820190508181036000830152612f6781612f2b565b9050919050565b7f455243313135353a2069647320616e6420616d6f756e7473206c656e6774682060008201527f6d69736d61746368000000000000000000000000000000000000000000000000602082015250565b6000612fca60288361214d565b9150612fd582612f6e565b604082019050919050565b60006020820190508181036000830152612ff981612fbd565b9050919050565b7f455243313135353a206275726e20616d6f756e7420657863656564732062616c60008201527f616e636500000000000000000000000000000000000000000000000000000000602082015250565b600061305c60248361214d565b915061306782613000565b604082019050919050565b6000602082019050818103600083015261308b8161304f565b9050919050565b600060408201905081810360008301526130ac81856126db565b905081810360208301526130c081846126db565b90509392505050565b7f455243313135353a207472616e7366657220746f20746865207a65726f20616460008201527f6472657373000000000000000000000000000000000000000000000000000000602082015250565b600061312560258361214d565b9150613130826130c9565b604082019050919050565b6000602082019050818103600083015261315481613118565b9050919050565b7f455243313135353a20696e73756666696369656e742062616c616e636520666f60008201527f72207472616e7366657200000000000000000000000000000000000000000000602082015250565b60006131b7602a8361214d565b91506131c28261315b565b604082019050919050565b600060208201905081810360008301526131e6816131aa565b9050919050565b7f455243313135353a2073657474696e6720617070726f76616c2073746174757360008201527f20666f722073656c660000000000000000000000000000000000000000000000602082015250565b600061324960298361214d565b9150613254826131ed565b604082019050919050565b600060208201905081810360008301526132788161323c565b9050919050565b61328881611fa9565b82525050565b600081519050919050565b600082825260208201905092915050565b60006132b58261328e565b6132bf8185613299565b93506132cf81856020860161215e565b6132d881612188565b840191505092915050565b600060a0820190506132f8600083018861327f565b613305602083018761327f565b613312604083018661205d565b61331f606083018561205d565b818103608083015261333181846132aa565b90509695505050505050565b60008151905061334c816120b3565b92915050565b60006020828403121561336857613367611f7f565b5b60006133768482850161333d565b91505092915050565b60008160e01c9050919050565b600060033d11156133ab5760046000803e6133a860005161337f565b90505b90565b600060443d1061343b576133c0611f75565b60043d036004823e80513d602482011167ffffffffffffffff821117156133e857505061343b565b808201805167ffffffffffffffff811115613406575050505061343b565b80602083010160043d03850181111561342357505050505061343b565b613432826020018501866122a8565b82955050505050505b90565b7f455243313135353a207472616e7366657220746f206e6f6e2d4552433131353560008201527f526563656976657220696d706c656d656e746572000000000000000000000000602082015250565b600061349a60348361214d565b91506134a58261343e565b604082019050919050565b600060208201905081810360008301526134c98161348d565b9050919050565b7f455243313135353a204552433131353552656365697665722072656a6563746560008201527f6420746f6b656e73000000000000000000000000000000000000000000000000602082015250565b600061352c60288361214d565b9150613537826134d0565b604082019050919050565b6000602082019050818103600083015261355b8161351f565b9050919050565b600060a082019050613577600083018861327f565b613584602083018761327f565b818103604083015261359681866126db565b905081810360608301526135aa81856126db565b905081810360808301526135be81846132aa565b9050969550505050505056fea26469706673582212206da1df345829189564f0aa8a81ca409ab30a83a0d9d1ffe9daace95d52cfe34864736f6c6343000811003368747470733a2f2f697066732e696f2f697066732f516d517271374b486d6d387273336f714355466f31616567664b4c417966535a5858387647575442714d646172672f7b69647d2e6a736f6e4120636f6c6c656374696f6e206f662063617264732077697468206a756e676c6520616e696d616c73206f6e207468656d2e",
  "linkReferences": {},
  "deployedLinkReferences": {}
}